:03000000020311E7
:10000B00020626E88FF0A4CC8BF0A42CFCE98EF032
:10001B00A42CFC8AF0EDA42CFCEA8EF0A4CDA8F065
:10002B008BF0A42DCC3825F0FDE98FF0A42CCD3529
:10003B00F0FCEB8EF0A4FEA9F0EB8FF0A4CFC5F093
:10004B002ECD39FEE43CFCEAA42DCE35F0FDE43C8C
:10005B00FC2275F008758200EF2FFFEE33FECD33D7
:10006B00CDCC33CCC58233C5829BED9AEC99E5821E
:10007B0098400CF582EE9BFEED9AFDEC99FC0FD5AA
:10008B00F0D6E4CEFBE4CDFAE4CCF9A88222B8009A
:10009B00C1B90059BA002DEC8BF084CFCECDFCE565
:1000AB00F0CBF97818EF2FFFEE33FEED33FDEC3389
:1000BB00FCEB33FB10D703994004EB99FB0FD8E50E
:1000CB00E4F9FA227818EF2FFFEE33FEED33FDEC57
:1000DB0033FCC933C910D7059BE99A4007EC9BFC4D
:1000EB00E99AF90FD8E0E4C9FAE4CCFB2275F010D9
:1000FB00EF2FFFEE33FEED33FDCC33CCC833C810FE
:10010B00D7079BEC9AE899400AED9BFDEC9AFCE82B
:10011B0099F80FD5F0DAE4CDFBE4CCFAE4C8F92278
:10012B00E8600FEFC333FFEE33FEED33FDEC33FC32
:10013B00D8F122E6FC08E6FD08E6FE08E6FF22EC15
:10014B00F608EDF608EEF608EFF6227580FF7DBF98
:10015B00E4FF1205B37580FF900755E493FD7F0113
:10016B001205B37580FFE52393FD7F021205B3756E
:10017B0080FF7DFF1205917580FFE52325E025E0CB
:10018B002435F812013E7BA07A86790178001200A3
:10019B0099E47B0AFAF9F812009974552BF58274DD
:1001AB00073AF583E493FD7F061205B37580FFE5EF
:1001BB002325E025E02435F812013EE47B107A2755
:1001CB00F9F8120099E47B0AFAF9F81200997455C0
:1001DB002BF58274073AF583E493FD7F071205B381
:1001EB001205147580FF227580FFE52AC4540F9009
:1001FB00075593FDE4FF1205B37580FFE52A540FF5
:10020B0093FD7F011205B37580FFE52660047DBF6A
:10021B0080027DFF7F021206941205B67580FFE502
:10022B0029C4540F90075593FD7F031205B37580B6
:10023B00FFE529540F93FD7F041205B37580FFE58D
:10024B002660047DBF80027DFF7F05120694120598
:10025B00B67580FFE528C4540F90075593FD7F06B4
:10026B001205B37580FFE528540F93FD7F07120528
:10027B00B31205147580FF2212064D7FCC1206B205
:10028B007F441206B27F707E171205BA12064D120A
:10029B00064D7FCC1206B27FBE1206B21206EA8F53
:1002AB00091206EA8F0A12064DE4850A0EF50DF5C2
:1002BB000CF50BAF0EAE0DAD0CAC0B780812012B81
:1002CB00A804A905AA06AB07EB4509F50EEAF50D3F
:1002DB00E9F50CE8F50BE50AD3941F4003D3800135
:1002EB00C34022AF0EAE0DAD0CAC0BE47B717A02AA
:1002FB00F9F812000E8F0E8E0D8D0C8C0B8F328E2B
:10030B00318D308C2F22787FE4F6D8FD75815E021B
:10031B00035802039DE493A3F8E493A34003F680F0
:10032B0001F208DFF48029E493A3F85407240CC8E6
:10033B00C333C4540F4420C8834004F45680014691
:10034B00F6DFE4800B0102040810204080900423A8
:10035B00E47E019360BCA3FF543F30E509541FFEBC
:10036B00E493A360010ECF54C025E060A840B8E42D
:10037B0093A3FAE493A3F8E493A3C8C582C8CAC5B0
:10038B0083CAF0A3C8C582C8CAC583CADFE9DEE742
:10039B0080BE12073BE521700812055312047F80C3
:1003AB00F4E521B401EFE55E70061205F9755E0107
:1003BB00E534C3940A4030E5266011E522700D85C3
:1003CB00A0087F041205205380FE801085A0087FB3
:1003DB0004120520E58054FE4401F5808508A01227
:1003EB0001561204CB80AEE527C39525401BE4F5DF
:1003FB0027AF32AE31AD30AC2FE53425E025E0240C
:10040B0035F812014A053480031207491201F21222
:10041B0006741202830203A0042F000000002028A0
:10042B00350000000000000000000000000000008C
:10043B0000000000000000000000000000000000B1
:10044B000000000000000000000123000122000753
:10045B002850592301010101012400012700013417
:10046B0000012501013301012100015D000126007E
:10047B00015E00007580FF7DFFE4FF1205B3758000
:10048B00FF7F011205B37580FF7F021205B37580E4
:10049B00FF1205917580FFE53375F00A84900755BF
:1004AB0093FD7F061205B37580FFE53375F00A8463
:1004BB00E5F093FD7F071205B31205147580FF223B
:1004CB0020B11D20B10512015680F8E5227005758B
:1004DB002201800C0523E523C3940A4003E4F52392
:1004EB0020B02520B00512015680F8E4F5217F28B5
:1004FB007835E4F608DFFCE4F523F522F524F5273F
:10050B00F534752501753301227580FF7F061205C1
:10051B00207580FF0FEF24FB601314601914601F0C
:10052B0024037023E5A0541F4480F5A022E5A054BA
:10053B001F44A0F5A022E5A0541F44C0F5A022E55E
:10054B00A0541F44E0F5A02220B32920B3051204C8
:10055B007F80F8E533B401057533058017E533B4B7
:10056B00050575331E800DE533B41E0575333C80D0
:10057B000375330120B20E20B20512047F80F8857B
:10058B003325752101227F031206947FF47E01121D
:10059B0005BA7580FF7F041206947FF47E01120565
:1005AB00BA7580FF7DBF7F051206947FF47E01EF45
:1005BB001FAC0670011E4C70F622E4FDC29300C204
:1005CB009700D29300120718E4FFC297EDC313FDF7
:1005DB0030A303430580D2970FBF08EEC29300C22E
:1005EB009700D29700C2A300D2A300AF0522E4F577
:1005FB0009FD7F8E120704E4F509E5099007759351
:10060B00FF74282509F8E6FD1207040509E509D34F
:10061B00940740E67D807F8E020704C0E0C0D07552
:10062B008C3C758AAF055DE55DC3940A400F755D23
:10063B0000E52670057526018003752600D0D0D005
:10064B00E032C200D2947F0C7E001206D4C2947F9B
:10065B00507E001206D4D2947F0A7E001206D4A2DA
:10066B009492001206D0A20022E4F509F509E509DF
:10067B0090077C93FF1205C574282509F8A607057A
:10068B0009E509D3940740E622AE077F0612052041
:10069B00AF06A8077401088002C333D8FCF5807F2E
:1006AB00071205208D8022A907E4FBC294E913925F
:1006BB00941206D0D294E9C313F90BBB08ED7F0556
:1006CB007E000206D47F057E00EF1FAA0670011E76
:1006DB004A600BE4FDEDC3940C50EE0D80F722E461
:1006EB00FBC294ECC313FCD29430940343048012EA
:1006FB0006D00BBB08EBAF0422C29300C29700D20B
:10070B009300120718AF05120718C29322E4FEC21A
:10071B0097EF1392A3EFC313FFD2970EBE08F022ED
:10072B00758901758C3C758AAFD2AFD2A9D28C2258
:10073B007F04120519E4F58085282402072BE52494
:10074B0065286005852824052722C0F9A4B0999255
:10075B0082F880908883C6A1868E40792430191246
:10076B000278001008034621060E80828486888A50
:08077B008C81838587898B8D39
:00000001FF
